{
  "contractName": "BullionixGenerator",
  "abi": [
    {
      "constant": true,
      "inputs": [
        {
          "name": "interfaceId",
          "type": "bytes4"
        }
      ],
      "name": "supportsInterface",
      "outputs": [
        {
          "name": "",
          "type": "bool"
        }
      ],
      "payable": false,
      "stateMutability": "view",
      "type": "function"
    },
    {
      "constant": true,
      "inputs": [],
      "name": "name",
      "outputs": [
        {
          "name": "",
          "type": "string"
        }
      ],
      "payable": false,
      "stateMutability": "view",
      "type": "function"
    },
    {
      "constant": true,
      "inputs": [
        {
          "name": "tokenId",
          "type": "uint256"
        }
      ],
      "name": "getApproved",
      "outputs": [
        {
          "name": "",
          "type": "address"
        }
      ],
      "payable": false,
      "stateMutability": "view",
      "type": "function"
    },
    {
      "constant": false,
      "inputs": [
        {
          "name": "to",
          "type": "address"
        },
        {
          "name": "tokenId",
          "type": "uint256"
        }
      ],
      "name": "approve",
      "outputs": [],
      "payable": false,
      "stateMutability": "nonpayable",
      "type": "function"
    },
    {
      "constant": true,
      "inputs": [],
      "name": "totalSupply",
      "outputs": [
        {
          "name": "",
          "type": "uint256"
        }
      ],
      "payable": false,
      "stateMutability": "view",
      "type": "function"
    },
    {
      "constant": true,
      "inputs": [],
      "name": "DGXTokenStorage",
      "outputs": [
        {
          "name": "",
          "type": "address"
        }
      ],
      "payable": false,
      "stateMutability": "view",
      "type": "function"
    },
    {
      "constant": false,
      "inputs": [
        {
          "name": "from",
          "type": "address"
        },
        {
          "name": "to",
          "type": "address"
        },
        {
          "name": "tokenId",
          "type": "uint256"
        }
      ],
      "name": "transferFrom",
      "outputs": [],
      "payable": false,
      "stateMutability": "nonpayable",
      "type": "function"
    },
    {
      "constant": true,
      "inputs": [
        {
          "name": "owner",
          "type": "address"
        },
        {
          "name": "index",
          "type": "uint256"
        }
      ],
      "name": "tokenOfOwnerByIndex",
      "outputs": [
        {
          "name": "",
          "type": "uint256"
        }
      ],
      "payable": false,
      "stateMutability": "view",
      "type": "function"
    },
    {
      "constant": false,
      "inputs": [
        {
          "name": "from",
          "type": "address"
        },
        {
          "name": "to",
          "type": "address"
        },
        {
          "name": "tokenId",
          "type": "uint256"
        }
      ],
      "name": "safeTransferFrom",
      "outputs": [],
      "payable": false,
      "stateMutability": "nonpayable",
      "type": "function"
    },
    {
      "constant": true,
      "inputs": [
        {
          "name": "index",
          "type": "uint256"
        }
      ],
      "name": "tokenByIndex",
      "outputs": [
        {
          "name": "",
          "type": "uint256"
        }
      ],
      "payable": false,
      "stateMutability": "view",
      "type": "function"
    },
    {
      "constant": true,
      "inputs": [
        {
          "name": "",
          "type": "uint256"
        }
      ],
      "name": "seriesToTokenId",
      "outputs": [
        {
          "name": "url",
          "type": "string"
        },
        {
          "name": "numberInSeries",
          "type": "uint256"
        },
        {
          "name": "DGXcost",
          "type": "uint256"
        },
        {
          "name": "fee",
          "type": "uint256"
        },
        {
          "name": "alive",
          "type": "bool"
        }
      ],
      "payable": false,
      "stateMutability": "view",
      "type": "function"
    },
    {
      "constant": true,
      "inputs": [
        {
          "name": "tokenId",
          "type": "uint256"
        }
      ],
      "name": "ownerOf",
      "outputs": [
        {
          "name": "",
          "type": "address"
        }
      ],
      "payable": false,
      "stateMutability": "view",
      "type": "function"
    },
    {
      "constant": true,
      "inputs": [],
      "name": "isOnline",
      "outputs": [
        {
          "name": "",
          "type": "bool"
        }
      ],
      "payable": false,
      "stateMutability": "view",
      "type": "function"
    },
    {
      "constant": true,
      "inputs": [
        {
          "name": "owner",
          "type": "address"
        }
      ],
      "name": "balanceOf",
      "outputs": [
        {
          "name": "",
          "type": "uint256"
        }
      ],
      "payable": false,
      "stateMutability": "view",
      "type": "function"
    },
    {
      "constant": false,
      "inputs": [],
      "name": "renounceOwnership",
      "outputs": [],
      "payable": false,
      "stateMutability": "nonpayable",
      "type": "function"
    },
    {
      "constant": true,
      "inputs": [],
      "name": "owner",
      "outputs": [
        {
          "name": "",
          "type": "address"
        }
      ],
      "payable": false,
      "stateMutability": "view",
      "type": "function"
    },
    {
      "constant": true,
      "inputs": [],
      "name": "isOwner",
      "outputs": [
        {
          "name": "",
          "type": "bool"
        }
      ],
      "payable": false,
      "stateMutability": "view",
      "type": "function"
    },
    {
      "constant": true,
      "inputs": [],
      "name": "symbol",
      "outputs": [
        {
          "name": "",
          "type": "string"
        }
      ],
      "payable": false,
      "stateMutability": "view",
      "type": "function"
    },
    {
      "constant": false,
      "inputs": [
        {
          "name": "to",
          "type": "address"
        },
        {
          "name": "approved",
          "type": "bool"
        }
      ],
      "name": "setApprovalForAll",
      "outputs": [],
      "payable": false,
      "stateMutability": "nonpayable",
      "type": "function"
    },
    {
      "constant": false,
      "inputs": [
        {
          "name": "from",
          "type": "address"
        },
        {
          "name": "to",
          "type": "address"
        },
        {
          "name": "tokenId",
          "type": "uint256"
        },
        {
          "name": "_data",
          "type": "bytes"
        }
      ],
      "name": "safeTransferFrom",
      "outputs": [],
      "payable": false,
      "stateMutability": "nonpayable",
      "type": "function"
    },
    {
      "constant": true,
      "inputs": [
        {
          "name": "",
          "type": "uint256"
        }
      ],
      "name": "StakedValue",
      "outputs": [
        {
          "name": "",
          "type": "uint256"
        }
      ],
      "payable": false,
      "stateMutability": "view",
      "type": "function"
    },
    {
      "constant": true,
      "inputs": [],
      "name": "DGXContract",
      "outputs": [
        {
          "name": "",
          "type": "address"
        }
      ],
      "payable": false,
      "stateMutability": "view",
      "type": "function"
    },
    {
      "constant": true,
      "inputs": [
        {
          "name": "tokenId",
          "type": "uint256"
        }
      ],
      "name": "tokenURI",
      "outputs": [
        {
          "name": "",
          "type": "string"
        }
      ],
      "payable": false,
      "stateMutability": "view",
      "type": "function"
    },
    {
      "constant": true,
      "inputs": [
        {
          "name": "owner",
          "type": "address"
        },
        {
          "name": "operator",
          "type": "address"
        }
      ],
      "name": "isApprovedForAll",
      "outputs": [
        {
          "name": "",
          "type": "bool"
        }
      ],
      "payable": false,
      "stateMutability": "view",
      "type": "function"
    },
    {
      "constant": false,
      "inputs": [
        {
          "name": "newOwner",
          "type": "address"
        }
      ],
      "name": "transferOwnership",
      "outputs": [],
      "payable": false,
      "stateMutability": "nonpayable",
      "type": "function"
    },
    {
      "inputs": [],
      "payable": false,
      "stateMutability": "nonpayable",
      "type": "constructor"
    },
    {
      "payable": true,
      "stateMutability": "payable",
      "type": "fallback"
    },
    {
      "anonymous": false,
      "inputs": [
        {
          "indexed": true,
          "name": "url",
          "type": "string"
        },
        {
          "indexed": true,
          "name": "numberToMint",
          "type": "uint256"
        }
      ],
      "name": "NewSeriesMade",
      "type": "event"
    },
    {
      "anonymous": false,
      "inputs": [
        {
          "indexed": true,
          "name": "_sender",
          "type": "address"
        },
        {
          "indexed": false,
          "name": "_amount",
          "type": "uint256"
        },
        {
          "indexed": false,
          "name": "tokenStaked",
          "type": "uint256"
        }
      ],
      "name": "Staked",
      "type": "event"
    },
    {
      "anonymous": false,
      "inputs": [
        {
          "indexed": true,
          "name": "_sender",
          "type": "address"
        },
        {
          "indexed": false,
          "name": "_amount",
          "type": "uint256"
        },
        {
          "indexed": false,
          "name": "_tokenId",
          "type": "uint256"
        }
      ],
      "name": "Burned",
      "type": "event"
    },
    {
      "anonymous": false,
      "inputs": [
        {
          "indexed": true,
          "name": "_receiver",
          "type": "address"
        },
        {
          "indexed": true,
          "name": "_amount",
          "type": "uint256"
        }
      ],
      "name": "Withdrawal",
      "type": "event"
    },
    {
      "anonymous": false,
      "inputs": [
        {
          "indexed": true,
          "name": "previousOwner",
          "type": "address"
        },
        {
          "indexed": true,
          "name": "newOwner",
          "type": "address"
        }
      ],
      "name": "OwnershipTransferred",
      "type": "event"
    },
    {
      "anonymous": false,
      "inputs": [
        {
          "indexed": true,
          "name": "from",
          "type": "address"
        },
        {
          "indexed": true,
          "name": "to",
          "type": "address"
        },
        {
          "indexed": true,
          "name": "tokenId",
          "type": "uint256"
        }
      ],
      "name": "Transfer",
      "type": "event"
    },
    {
      "anonymous": false,
      "inputs": [
        {
          "indexed": true,
          "name": "owner",
          "type": "address"
        },
        {
          "indexed": true,
          "name": "approved",
          "type": "address"
        },
        {
          "indexed": true,
          "name": "tokenId",
          "type": "uint256"
        }
      ],
      "name": "Approval",
      "type": "event"
    },
    {
      "anonymous": false,
      "inputs": [
        {
          "indexed": true,
          "name": "owner",
          "type": "address"
        },
        {
          "indexed": true,
          "name": "operator",
          "type": "address"
        },
        {
          "indexed": false,
          "name": "approved",
          "type": "bool"
        }
      ],
      "name": "ApprovalForAll",
      "type": "event"
    },
    {
      "constant": false,
      "inputs": [],
      "name": "toggleOnline",
      "outputs": [],
      "payable": false,
      "stateMutability": "nonpayable",
      "type": "function"
    },
    {
      "constant": false,
      "inputs": [
        {
          "name": "_url",
          "type": "string"
        },
        {
          "name": "_numberToMint",
          "type": "uint256"
        },
        {
          "name": "_DGXcost",
          "type": "uint256"
        },
        {
          "name": "_fee",
          "type": "uint256"
        }
      ],
      "name": "createNewSeries",
      "outputs": [
        {
          "name": "_success",
          "type": "bool"
        }
      ],
      "payable": false,
      "stateMutability": "nonpayable",
      "type": "function"
    },
    {
      "constant": false,
      "inputs": [
        {
          "name": "_tokenToBuy",
          "type": "uint256"
        }
      ],
      "name": "stake",
      "outputs": [
        {
          "name": "",
          "type": "bool"
        }
      ],
      "payable": true,
      "stateMutability": "payable",
      "type": "function"
    },
    {
      "constant": false,
      "inputs": [
        {
          "name": "_tokenId",
          "type": "uint256"
        }
      ],
      "name": "burn",
      "outputs": [
        {
          "name": "",
          "type": "bool"
        }
      ],
      "payable": true,
      "stateMutability": "payable",
      "type": "function"
    },
    {
      "constant": false,
      "inputs": [],
      "name": "withdrawal",
      "outputs": [
        {
          "name": "",
          "type": "bool"
        }
      ],
      "payable": false,
      "stateMutability": "nonpayable",
      "type": "function"
    },
    {
      "constant": true,
      "inputs": [],
      "name": "viewYourTokens",
      "outputs": [
        {
          "name": "_yourTokens",
          "type": "uint256[]"
        }
      ],
      "payable": false,
      "stateMutability": "view",
      "type": "function"
    },
    {
      "constant": false,
      "inputs": [
        {
          "name": "newAddress",
          "type": "address"
        }
      ],
      "name": "setDGXStorage",
      "outputs": [
        {
          "name": "",
          "type": "bool"
        }
      ],
      "payable": false,
      "stateMutability": "nonpayable",
      "type": "function"
    },
    {
      "constant": false,
      "inputs": [
        {
          "name": "newAddress",
          "type": "address"
        }
      ],
      "name": "setDGXContract",
      "outputs": [
        {
          "name": "",
          "type": "bool"
        }
      ],
      "payable": false,
      "stateMutability": "nonpayable",
      "type": "function"
    }
  ],
  "bytecode": "0x60806040526000600e60146101000a81548160ff02191690831515021790555073aed4fc9663420ec8a6c892065bba49c935581dce600f60006101000a81548173ffffffffffffffffffffffffffffffffffffffff021916908373ffffffffffffffffffffffffffffffffffffffff160217905550733c5e7435190ecd13c88f3600ca317a1a5fdd2ae6601060006101000a81548173ffffffffffffffffffffffffffffffffffffffff021916908373ffffffffffffffffffffffffffffffffffffffff160217905550348015620000d657600080fd5b506040805190810160405280600981526020017f42756c6c696f6e697800000000000000000000000000000000000000000000008152506040805190810160405280600381526020017f424c580000000000000000000000000000000000000000000000000000000000815250620001806301ffc9a77c010000000000000000000000000000000000000000000000000000000002620004c6640100000000026401000000009004565b620001bd6380ac58cd7c010000000000000000000000000000000000000000000000000000000002620004c6640100000000026401000000009004565b620001fa63780e9d637c010000000000000000000000000000000000000000000000000000000002620004c6640100000000026401000000009004565b816009908051906020019062000212929190620005ed565b5080600a90805190602001906200022b929190620005ed565b5062000269635b5e139f7c010000000000000000000000000000000000000000000000000000000002620004c6640100000000026401000000009004565b505033600c60006101000a81548173ffffffffffffffffffffffffffffffffffffffff021916908373ffffffffffffffffffffffffffffffffffffffff160217905550600c60009054906101000a900473ffffffffffffffffffffffffffffffffffffffff1673ffffffffffffffffffffffffffffffffffffffff16600073ffffffffffffffffffffffffffffffffffffffff167f8be0079c531659141344cd1fd0a4f28419497f9722a3daafe3b4186f6b6457e060405160405180910390a3600073ffffffffffffffffffffffffffffffffffffffff16600f60009054906101000a900473ffffffffffffffffffffffffffffffffffffffff1673ffffffffffffffffffffffffffffffffffffffff1614158015620003d85750600073ffffffffffffffffffffffffffffffffffffffff16601060009054906101000a900473ffffffffffffffffffffffffffffffffffffffff1673ffffffffffffffffffffffffffffffffffffffff1614155b15620004c0576001600e60146101000a81548160ff021916908315150217905550600f60009054906101000a900473ffffffffffffffffffffffffffffffffffffffff16600d60006101000a81548173ffffffffffffffffffffffffffffffffffffffff021916908373ffffffffffffffffffffffffffffffffffffffff160217905550601060009054906101000a900473ffffffffffffffffffffffffffffffffffffffff16600e60006101000a81548173ffffffffffffffffffffffffffffffffffffffff021916908373ffffffffffffffffffffffffffffffffffffffff1602179055505b6200069c565b63ffffffff7c010000000000000000000000000000000000000000000000000000000002817bffffffffffffffffffffffffffffffffffffffffffffffffffffffff19161415151562000581576040517f08c379a000000000000000000000000000000000000000000000000000000000815260040180806020018281038252601c8152602001807f4552433136353a20696e76616c696420696e746572666163652069640000000081525060200191505060405180910390fd5b6001600080837bffffffffffffffffffffffffffffffffffffffffffffffffffffffff19167bffffffffffffffffffffffffffffffffffffffffffffffffffffffff1916815260200190815260200160002060006101000a81548160ff02191690831515021790555050565b828054600181600116156101000203166002900490600052602060002090601f016020900481019282601f106200063057805160ff191683800117855562000661565b8280016001018555821562000661579182015b828111156200066057825182559160200191906001019062000643565b5b50905062000670919062000674565b5090565b6200069991905b80821115620006955760008160009055506001016200067b565b5090565b90565b61536380620006ac6000396000f3fe60806040526004361061020b576000357c01000000000000000000000000000000000000000000000000000000009004806370a082311161012a578063abc0a6db116100bd578063c87b56dd1161008c578063c87b56dd14610db6578063c9f5808b14610e6a578063d4e9329214610ed3578063e985e9c514610f02578063f2fde38b14610f8b5761020b565b8063abc0a6db14610b00578063b88d4fde14610bfe578063c21d0a6114610d10578063c4c6fe8714610d5f5761020b565b80638f32d59b116100f95780638f32d59b1461099e57806395d89b41146109cd578063a22cb46514610a5d578063a694fc3a14610aba5761020b565b806370a082311461085f578063715018a6146108c4578063747b41cf146108db5780638da5cb5b146109475761020b565b80632f745c59116101a25780634f6ccce7116101715780634f6ccce7146106925780635bacc864146106e15780636352211e146107b5578063664ab18e146108305761020b565b80632f745c591461054b57806340e05d08146105ba57806342842e0e146105d157806342966c681461064c5761020b565b80630dc014db116101de5780630dc014db146103e557806318160ddd1461044e5780631995771b1461047957806323b872dd146104d05761020b565b806301ffc9a71461020d57806306fdde031461027f578063081812fc1461030f578063095ea7b31461038a575b005b34801561021957600080fd5b506102656004803603602081101561023057600080fd5b8101908080357bffffffffffffffffffffffffffffffffffffffffffffffffffffffff19169060200190929190505050610fdc565b604051808215151515815260200191505060405180910390f35b34801561028b57600080fd5b50610294611043565b6040518080602001828103825283818151815260200191508051906020019080838360005b838110156102d45780820151818401526020810190506102b9565b50505050905090810190601f1680156103015780820380516001836020036101000a031916815260200191505b509250505060405180910390f35b34801561031b57600080fd5b506103486004803603602081101561033257600080fd5b81019080803590602001909291905050506110e5565b604051808273ffffffffffffffffffffffffffffffffffffffff1673ffffffffffffffffffffffffffffffffffffffff16815260200191505060405180910390f35b34801561039657600080fd5b506103e3600480360360408110156103ad57600080fd5b81019080803573ffffffffffffffffffffffffffffffffffffffff16906020019092919080359060200190929190505050611182565b005b3480156103f157600080fd5b506104346004803603602081101561040857600080fd5b81019080803573ffffffffffffffffffffffffffffffffffffffff16906020019092919050505061135f565b604051808215151515815260200191505060405180910390f35b34801561045a57600080fd5b5061046361148a565b6040518082815260200191505060405180910390f35b34801561048557600080fd5b5061048e611497565b604051808273ffffffffffffffffffffffffffffffffffffffff1673ffffffffffffffffffffffffffffffffffffffff16815260200191505060405180910390f35b3480156104dc57600080fd5b50610549600480360360608110156104f357600080fd5b81019080803573ffffffffffffffffffffffffffffffffffffffff169060200190929190803573ffffffffffffffffffffffffffffffffffffffff169060200190929190803590602001909291905050506114bd565b005b34801561055757600080fd5b506105a46004803603604081101561056e57600080fd5b81019080803573ffffffffffffffffffffffffffffffffffffffff1690602001909291908035906020019092919050505061152e565b6040518082815260200191505060405180910390f35b3480156105c657600080fd5b506105cf6115f1565b005b3480156105dd57600080fd5b5061064a600480360360608110156105f457600080fd5b81019080803573ffffffffffffffffffffffffffffffffffffffff169060200190929190803573ffffffffffffffffffffffffffffffffffffffff16906020019092919080359060200190929190505050611699565b005b6106786004803603602081101561066257600080fd5b81019080803590602001909291905050506116ba565b604051808215151515815260200191505060405180910390f35b34801561069e57600080fd5b506106cb600480360360208110156106b557600080fd5b8101908080359060200190929190505050611a86565b6040518082815260200191505060405180910390f35b3480156106ed57600080fd5b5061071a6004803603602081101561070457600080fd5b8101908080359060200190929190505050611b0a565b604051808060200186815260200185815260200184815260200183151515158152602001828103825287818151815260200191508051906020019080838360005b8381101561077657808201518184015260208101905061075b565b50505050905090810190601f1680156107a35780820380516001836020036101000a031916815260200191505b50965050505050505060405180910390f35b3480156107c157600080fd5b506107ee600480360360208110156107d857600080fd5b8101908080359060200190929190505050611be5565b604051808273ffffffffffffffffffffffffffffffffffffffff1673ffffffffffffffffffffffffffffffffffffffff16815260200191505060405180910390f35b34801561083c57600080fd5b50610845611caf565b604051808215151515815260200191505060405180910390f35b34801561086b57600080fd5b506108ae6004803603602081101561088257600080fd5b81019080803573ffffffffffffffffffffffffffffffffffffffff169060200190929190505050611cc2565b6040518082815260200191505060405180910390f35b3480156108d057600080fd5b506108d9611d99565b005b3480156108e757600080fd5b506108f0611ed6565b6040518080602001828103825283818151815260200191508051906020019060200280838360005b83811015610933578082015181840152602081019050610918565b505050509050019250505060405180910390f35b34801561095357600080fd5b5061095c611f35565b604051808273ffffffffffffffffffffffffffffffffffffffff1673ffffffffffffffffffffffffffffffffffffffff16815260200191505060405180910390f35b3480156109aa57600080fd5b506109b3611f5f565b604051808215151515815260200191505060405180910390f35b3480156109d957600080fd5b506109e2611fb7565b6040518080602001828103825283818151815260200191508051906020019080838360005b83811015610a22578082015181840152602081019050610a07565b50505050905090810190601f168015610a4f5780820380516001836020036101000a031916815260200191505b509250505060405180910390f35b348015610a6957600080fd5b50610ab860048036036040811015610a8057600080fd5b81019080803573ffffffffffffffffffffffffffffffffffffffff169060200190929190803515159060200190929190505050612059565b005b610ae660048036036020811015610ad057600080fd5b81019080803590602001909291905050506121fe565b604051808215151515815260200191505060405180910390f35b348015610b0c57600080fd5b50610be460048036036080811015610b2357600080fd5b8101908080359060200190640100000000811115610b4057600080fd5b820183602082011115610b5257600080fd5b80359060200191846001830284011164010000000083111715610b7457600080fd5b91908080601f016020809104026020016040519081016040528093929190818152602001838380828437600081840152601f19601f82011690508083019250505050505050919291929080359060200190929190803590602001909291908035906020019092919050505061261b565b604051808215151515815260200191505060405180910390f35b348015610c0a57600080fd5b50610d0e60048036036080811015610c2157600080fd5b81019080803573ffffffffffffffffffffffffffffffffffffffff169060200190929190803573ffffffffffffffffffffffffffffffffffffffff1690602001909291908035906020019092919080359060200190640100000000811115610c8857600080fd5b820183602082011115610c9a57600080fd5b80359060200191846001830284011164010000000083111715610cbc57600080fd5b91908080601f016020809104026020016040519081016040528093929190818152602001838380828437600081840152601f19601f8201169050808301925050505050505091929192905050506128ee565b005b348015610d1c57600080fd5b50610d4960048036036020811015610d3357600080fd5b8101908080359060200190929190505050612962565b6040518082815260200191505060405180910390f35b348015610d6b57600080fd5b50610d7461297a565b604051808273ffffffffffffffffffffffffffffffffffffffff1673ffffffffffffffffffffffffffffffffffffffff16815260200191505060405180910390f35b348015610dc257600080fd5b50610def60048036036020811015610dd957600080fd5b81019080803590602001909291905050506129a0565b6040518080602001828103825283818151815260200191508051906020019080838360005b83811015610e2f578082015181840152602081019050610e14565b50505050905090810190601f168015610e5c5780820380516001836020036101000a031916815260200191505b509250505060405180910390f35b348015610e7657600080fd5b50610eb960048036036020811015610e8d57600080fd5b81019080803573ffffffffffffffffffffffffffffffffffffffff169060200190929190505050612ab5565b604051808215151515815260200191505060405180910390f35b348015610edf57600080fd5b50610ee8612be0565b604051808215151515815260200191505060405180910390f35b348015610f0e57600080fd5b50610f7160048036036040811015610f2557600080fd5b81019080803573ffffffffffffffffffffffffffffffffffffffff169060200190929190803573ffffffffffffffffffffffffffffffffffffffff169060200190929190505050612de3565b604051808215151515815260200191505060405180910390f35b348015610f9757600080fd5b50610fda60048036036020811015610fae57600080fd5b81019080803573ffffffffffffffffffffffffffffffffffffffff169060200190929190505050612e77565b005b6000806000837bffffffffffffffffffffffffffffffffffffffffffffffffffffffff19167bffffffffffffffffffffffffffffffffffffffffffffffffffffffff1916815260200190815260200160002060009054906101000a900460ff169050919050565b606060098054600181600116156101000203166002900480601f0160208091040260200160405190810160405280929190818152602001828054600181600116156101000203166002900480156110db5780601f106110b0576101008083540402835291602001916110db565b820191906000526020600020905b8154815290600101906020018083116110be57829003601f168201915b5050505050905090565b60006110f082612eff565b1515611147576040517f08c379a000000000000000000000000000000000000000000000000000000000815260040180806020018281038252602c815260200180615194602c913960400191505060405180910390fd5b6002600083815260200190815260200160002060009054906101000a900473ffffffffffffffffffffffffffffffffffffffff169050919050565b600061118d82611be5565b90508073ffffffffffffffffffffffffffffffffffffffff168373ffffffffffffffffffffffffffffffffffffffff1614151515611216576040517f08c379a00000000000000000000000000000000000000000000000000000000081526004018080602001828103825260218152602001806152446021913960400191505060405180910390fd5b8073ffffffffffffffffffffffffffffffffffffffff163373ffffffffffffffffffffffffffffffffffffffff16148061125657506112558133612de3565b5b15156112ad576040517f08c379a00000000000000000000000000000000000000000000000000000000081526004018080602001828103825260388152602001806150e86038913960400191505060405180910390fd5b826002600084815260200190815260200160002060006101000a81548173ffffffffffffffffffffffffffffffffffffffff021916908373ffffffffffffffffffffffffffffffffffffffff160217905550818373ffffffffffffffffffffffffffffffffffffffff168273ffffffffffffffffffffffffffffffffffffffff167f8c5be1e5ebec7d5bd14f71427d1e84f3dd0314c0f7b2291e5b200ac8c7c3b92560405160405180910390a4505050565b6000611369611f5f565b15156113dd576040517f08c379a00000000000000000000000000000000000000000000000000000000081526004018080602001828103825260208152602001807f4f776e61626c653a2063616c6c6572206973206e6f7420746865206f776e657281525060200191505060405180910390fd5b81600f60006101000a81548173ffffffffffffffffffffffffffffffffffffffff021916908373ffffffffffffffffffffffffffffffffffffffff160217905550600f60009054906101000a900473ffffffffffffffffffffffffffffffffffffffff16600d60006101000a81548173ffffffffffffffffffffffffffffffffffffffff021916908373ffffffffffffffffffffffffffffffffffffffff16021790555060019050919050565b6000600780549050905090565b601060009054906101000a900473ffffffffffffffffffffffffffffffffffffffff1681565b6114c73382612f71565b151561151e576040517f08c379a00000000000000000000000000000000000000000000000000000000081526004018080602001828103825260318152602001806152656031913960400191505060405180910390fd5b611529838383613067565b505050565b600061153983611cc2565b82101515611592576040517f08c379a000000000000000000000000000000000000000000000000000000000815260040180806020018281038252602b815260200180615015602b913960400191505060405180910390fd5b600560008473ffffffffffffffffffffffffffffffffffffffff1673ffffffffffffffffffffffffffffffffffffffff168152602001908152602001600020828154811015156115de57fe5b9060005260206000200154905092915050565b6115f9611f5f565b151561166d576040517f08c379a00000000000000000000000000000000000000000000000000000000081526004018080602001828103825260208152602001807f4f776e61626c653a2063616c6c6572206973206e6f7420746865206f776e657281525060200191505060405180910390fd5b600e60149054906101000a900460ff1615600e60146101000a81548160ff021916908315150217905550565b6116b583838360206040519081016040528060008152506128ee565b505050565b60008060116000848152602001908152602001600020541180156116fe57506012600083815260200190815260200160002060040160009054906101000a900460ff165b1515611772576040517f08c379a00000000000000000000000000000000000000000000000000000000081526004018080602001828103825260148152602001807f4e4654206e6f74206275726e61626c652079657400000000000000000000000081525060200191505060405180910390fd5b61177c3383612f71565b15156117d3576040517f08c379a00000000000000000000000000000000000000000000000000000000081526004018080602001828103825260308152602001806153086030913960400191505060405180910390fd5b60006117dd61308b565b905060006117ea306131b9565b9050600061180182846133ab90919063ffffffff16565b905060116000868152602001908152602001600020548110151561188d576040517f08c379a000000000000000000000000000000000000000000000000000000000815260040180806020018281038252601c8152602001807f466565206973206d6f7265207468616e205374616b656456616c75650000000081525060200191505060405180910390fd5b60006118b58260116000898152602001908152602001600020546133ab90919063ffffffff16565b9050806118c0613435565b10151515611936576040517f08c379a00000000000000000000000000000000000000000000000000000000081526004018080602001828103825260148152602001807f42616c616e636520636865636b206661696c656400000000000000000000000081525060200191505060405180910390fd5b60006012600088815260200190815260200160002060040160006101000a81548160ff02191690831515021790555061196e866135af565b600d60009054906101000a900473ffffffffffffffffffffffffffffffffffffffff1673ffffffffffffffffffffffffffffffffffffffff1663a9059cbb33836040518363ffffffff167c0100000000000000000000000000000000000000000000000000000000028152600401808373ffffffffffffffffffffffffffffffffffffffff1673ffffffffffffffffffffffffffffffffffffffff16815260200182815260200192505050602060405180830381600087803b158015611a3357600080fd5b505af1158015611a47573d6000803e3d6000fd5b505050506040513d6020811015611a5d57600080fd5b81019080805190602001909291905050501515611a7957600080fd5b6001945050505050919050565b6000611a9061148a565b82101515611ae9576040517f08c379a000000000000000000000000000000000000000000000000000000000815260040180806020018281038252602c815260200180615296602c913960400191505060405180910390fd5b600782815481101515611af857fe5b90600052602060002001549050919050565b6012602052806000526040600020600091509050806000018054600181600116156101000203166002900480601f016020809104026020016040519081016040528092919081815260200182805460018160011615610100020316600290048015611bb65780601f10611b8b57610100808354040283529160200191611bb6565b820191906000526020600020905b815481529060010190602001808311611b9957829003601f168201915b5050505050908060010154908060020154908060030154908060040160009054906101000a900460ff16905085565b6000806001600084815260200190815260200160002060009054906101000a900473ffffffffffffffffffffffffffffffffffffffff169050600073ffffffffffffffffffffffffffffffffffffffff168173ffffffffffffffffffffffffffffffffffffffff1614151515611ca6576040517f08c379a000000000000000000000000000000000000000000000000000000000815260040180806020018281038252602981526020018061514a6029913960400191505060405180910390fd5b80915050919050565b600e60149054906101000a900460ff1681565b60008073ffffffffffffffffffffffffffffffffffffffff168273ffffffffffffffffffffffffffffffffffffffff1614151515611d4b576040517f08c379a000000000000000000000000000000000000000000000000000000000815260040180806020018281038252602a815260200180615120602a913960400191505060405180910390fd5b611d92600360008473ffffffffffffffffffffffffffffffffffffffff1673ffffffffffffffffffffffffffffffffffffffff1681526020019081526020016000206135c4565b9050919050565b611da1611f5f565b1515611e15576040517f08c379a00000000000000000000000000000000000000000000000000000000081526004018080602001828103825260208152602001807f4f776e61626c653a2063616c6c6572206973206e6f7420746865206f776e657281525060200191505060405180910390fd5b600073ffffffffffffffffffffffffffffffffffffffff16600c60009054906101000a900473ffffffffffffffffffffffffffffffffffffffff1673ffffffffffffffffffffffffffffffffffffffff167f8be0079c531659141344cd1fd0a4f28419497f9722a3daafe3b4186f6b6457e060405160405180910390a36000600c60006101000a81548173ffffffffffffffffffffffffffffffffffffffff021916908373ffffffffffffffffffffffffffffffffffffffff160217905550565b6060611ee1336135d2565b805480602002602001604051908101604052809291908181526020018280548015611f2b57602002820191906000526020600020905b815481526020019060010190808311611f17575b5050505050905090565b6000600c60009054906101000a900473ffffffffffffffffffffffffffffffffffffffff16905090565b6000600c60009054906101000a900473ffffffffffffffffffffffffffffffffffffffff1673ffffffffffffffffffffffffffffffffffffffff163373ffffffffffffffffffffffffffffffffffffffff1614905090565b6060600a8054600181600116156101000203166002900480601f01602080910402602001604051908101604052809291908181526020018280546001816001161561010002031660029004801561204f5780601f106120245761010080835404028352916020019161204f565b820191906000526020600020905b81548152906001019060200180831161203257829003601f168201915b5050505050905090565b3373ffffffffffffffffffffffffffffffffffffffff168273ffffffffffffffffffffffffffffffffffffffff16141515156120fd576040517f08c379a00000000000000000000000000000000000000000000000000000000081526004018080602001828103825260198152602001807f4552433732313a20617070726f766520746f2063616c6c65720000000000000081525060200191505060405180910390fd5b80600460003373ffffffffffffffffffffffffffffffffffffffff1673ffffffffffffffffffffffffffffffffffffffff16815260200190815260200160002060008473ffffffffffffffffffffffffffffffffffffffff1673ffffffffffffffffffffffffffffffffffffffff16815260200190815260200160002060006101000a81548160ff0219169083151502179055508173ffffffffffffffffffffffffffffffffffffffff163373ffffffffffffffffffffffffffffffffffffffff167f17307eab39ab6107e8899845ad3d59bd9653f200f220920489ca2b5937696c3183604051808215151515815260200191505060405180910390a35050565b600060011515600e60149054906101000a900460ff16151514151561222257600080fd5b600060126000848152602001908152602001600020600301541015801561225c575060006011600084815260200190815260200160002054145b15156122d0576040517f08c379a000000000000000000000000000000000000000000000000000000000815260040180806020018281038252601a8152602001807f43616e2774207374616b6520746f207468697320746f6b656e2100000000000081525060200191505060405180910390fd5b6000633b9aca00612316601260008681526020019081526020016000206003015460126000878152602001908152602001600020600201546133ab90919063ffffffff16565b029050600061232361308b565b90506000612330336131b9565b9050600061234783836133ab90919063ffffffff16565b9050612353338561361a565b15156123c7576040517f08c379a00000000000000000000000000000000000000000000000000000000081526004018080602001828103825260148152602001807f4e6f7420656e6f75676820616c6c6f77616e636500000000000000000000000081525060200191505060405180910390fd5b6123d133856137cc565b1515612445576040517f08c379a00000000000000000000000000000000000000000000000000000000081526004018080602001828103825260138152602001807f5472616e7366657220444758206661696c65640000000000000000000000000081525060200191505060405180910390fd5b606061245087613917565b90506124658286613ac990919063ffffffff16565b945081851115156124de576040517f08c379a000000000000000000000000000000000000000000000000000000000815260040180806020018281038252600c8152602001807f4d61746820696e76616c6964000000000000000000000000000000000000000081525060200191505060405180910390fd5b6124e9338883613b54565b151561255d576040517f08c379a00000000000000000000000000000000000000000000000000000000081526004018080602001828103825260128152602001807f4d696e74696e67204e4654206661696c6564000000000000000000000000000081525060200191505060405180910390fd5b8460116000898152602001908152602001600020819055503373ffffffffffffffffffffffffffffffffffffffff167f1449c6dd7851abc30abf37f57715f492010519147cc2652fbc38202c18a6ee90601160008a81526020019081526020016000205489604051808381526020018281526020019250505060405180910390a260016012600089815260200190815260200160002060040160006101000a81548160ff021916908315150217905550600195505050505050919050565b6000612625611f5f565b1515612699576040517f08c379a00000000000000000000000000000000000000000000000000000000081526004018080602001828103825260208152602001807f4f776e61626c653a2063616c6c6572206973206e6f7420746865206f776e657281525060200191505060405180910390fd5b60011515600e60149054906101000a900460ff1615151415156126bb57600080fd5b6126c3611f35565b73ffffffffffffffffffffffffffffffffffffffff163373ffffffffffffffffffffffffffffffffffffffff16141515612765576040517f08c379a000000000000000000000000000000000000000000000000000000000815260040180806020018281038252600a8152602001807f4f6e6c79204f776e65720000000000000000000000000000000000000000000081525060200191505060405180910390fd5b600061276f61148a565b905060008090505b8581101561285057866012600061279784866133ab90919063ffffffff16565b815260200190815260200160002060000190805190602001906127bb929190614efb565b5085601260006127d484866133ab90919063ffffffff16565b815260200190815260200160002060010181905550846012600061280184866133ab90919063ffffffff16565b815260200190815260200160002060020181905550836012600061282e84866133ab90919063ffffffff16565b8152602001908152602001600020600301819055508080600101915050612777565b5084866040518082805190602001908083835b6020831015156128885780518252602082019150602081019050602083039250612863565b6001836020036101000a03801982511681845116808217855250505050505090500191505060405180910390207f82dd50d000a324db3e3b2bd31cbf327fa37f7d9e966cc33581e9f71ae7babcec60405160405180910390a36001915050949350505050565b6128f98484846114bd565b61290584848484613b75565b151561295c576040517f08c379a00000000000000000000000000000000000000000000000000000000081526004018080602001828103825260328152602001806150406032913960400191505060405180910390fd5b50505050565b60116020528060005260406000206000915090505481565b600f60009054906101000a900473ffffffffffffffffffffffffffffffffffffffff1681565b60606129ab82612eff565b1515612a02576040517f08c379a000000000000000000000000000000000000000000000000000000000815260040180806020018281038252602f815260200180615215602f913960400191505060405180910390fd5b600b60008381526020019081526020016000208054600181600116156101000203166002900480601f016020809104026020016040519081016040528092919081815260200182805460018160011615610100020316600290048015612aa95780601f10612a7e57610100808354040283529160200191612aa9565b820191906000526020600020905b815481529060010190602001808311612a8c57829003601f168201915b50505050509050919050565b6000612abf611f5f565b1515612b33576040517f08c379a00000000000000000000000000000000000000000000000000000000081526004018080602001828103825260208152602001807f4f776e61626c653a2063616c6c6572206973206e6f7420746865206f776e657281525060200191505060405180910390fd5b81601060006101000a81548173ffffffffffffffffffffffffffffffffffffffff021916908373ffffffffffffffffffffffffffffffffffffffff160217905550601060009054906101000a900473ffffffffffffffffffffffffffffffffffffffff16600e60006101000a81548173ffffffffffffffffffffffffffffffffffffffff021916908373ffffffffffffffffffffffffffffffffffffffff16021790555060019050919050565b6000612bea611f5f565b1515612c5e576040517f08c379a00000000000000000000000000000000000000000000000000000000081526004018080602001828103825260208152602001807f4f776e61626c653a2063616c6c6572206973206e6f7420746865206f776e657281525060200191505060405180910390fd5b60001515600e60149054906101000a900460ff161515141515612c8057600080fd5b6000612c8a613435565b9050600d60009054906101000a900473ffffffffffffffffffffffffffffffffffffffff1673ffffffffffffffffffffffffffffffffffffffff1663a9059cbb33836040518363ffffffff167c0100000000000000000000000000000000000000000000000000000000028152600401808373ffffffffffffffffffffffffffffffffffffffff1673ffffffffffffffffffffffffffffffffffffffff16815260200182815260200192505050602060405180830381600087803b158015612d5157600080fd5b505af1158015612d65573d6000803e3d6000fd5b505050506040513d6020811015612d7b57600080fd5b81019080805190602001909291905050501515612d9757600080fd5b803373ffffffffffffffffffffffffffffffffffffffff167f7fcf532c15f0a6db0bd6d0e038bea71d30d808c7d98cb3bf7268a95bf5081b6560405160405180910390a3600191505090565b6000600460008473ffffffffffffffffffffffffffffffffffffffff1673ffffffffffffffffffffffffffffffffffffffff16815260200190815260200160002060008373ffffffffffffffffffffffffffffffffffffffff1673ffffffffffffffffffffffffffffffffffffffff16815260200190815260200160002060009054906101000a900460ff16905092915050565b612e7f611f5f565b1515612ef3576040517f08c379a00000000000000000000000000000000000000000000000000000000081526004018080602001828103825260208152602001807f4f776e61626c653a2063616c6c6572206973206e6f7420746865206f776e657281525060200191505060405180910390fd5b612efc81613d98565b50565b6000806001600084815260200190815260200160002060009054906101000a900473ffffffffffffffffffffffffffffffffffffffff169050600073ffffffffffffffffffffffffffffffffffffffff168173ffffffffffffffffffffffffffffffffffffffff161415915050919050565b6000612f7c82612eff565b1515612fd3576040517f08c379a000000000000000000000000000000000000000000000000000000000815260040180806020018281038252602c8152602001806150bc602c913960400191505060405180910390fd5b6000612fde83611be5565b90508073ffffffffffffffffffffffffffffffffffffffff168473ffffffffffffffffffffffffffffffffffffffff16148061304d57508373ffffffffffffffffffffffffffffffffffffffff16613035846110e5565b73ffffffffffffffffffffffffffffffffffffffff16145b8061305e575061305d8185612de3565b5b91505092915050565b613072838383613ee0565b61307c838261413f565b61308682826142e3565b505050565b600080600080600080600d60009054906101000a900473ffffffffffffffffffffffffffffffffffffffff1673ffffffffffffffffffffffffffffffffffffffff1663ae4aadbb6040518163ffffffff167c010000000000000000000000000000000000000000000000000000000002815260040160a060405180830381600087803b15801561311a57600080fd5b505af115801561312e573d6000803e3d6000fd5b505050506040513d60a081101561314457600080fd5b81019080805190602001909291908051906020019092919080519060200190929190805190602001909291908051906020019092919050505094509450945094509450811561319b576000955050505050506131b6565b6131ae85856143aa90919063ffffffff16565b955050505050505b90565b6000806000806000600d60009054906101000a900473ffffffffffffffffffffffffffffffffffffffff1673ffffffffffffffffffffffffffffffffffffffff1663293f9a9c6040518163ffffffff167c0100000000000000000000000000000000000000000000000000000000028152600401608060405180830381600087803b15801561324757600080fd5b505af115801561325b573d6000803e3d6000fd5b505050506040513d608081101561327157600080fd5b8101908080519060200190929190805190602001909291908051906020019092919080519060200190929190505050935093509350935080156132bb5760009450505050506133a6565b60006132d085856143aa90919063ffffffff16565b905060006132dd8861443d565b90506000613309620151806132fb8442613ac990919063ffffffff16565b6143aa90919063ffffffff16565b9050600081111515613383576040517f08c379a00000000000000000000000000000000000000000000000000000000081526004018080602001828103825260208152602001807f446179732073696e6365207472616e736665722069732030206f72206c65737381525060200191505060405180910390fd5b600061339882856145f390919063ffffffff16565b905080985050505050505050505b919050565b600080828401905083811015151561342b576040517f08c379a000000000000000000000000000000000000000000000000000000000815260040180806020018281038252601b8152602001807f536166654d6174683a206164646974696f6e206f766572666c6f77000000000081525060200191505060405180910390fd5b8091505092915050565b600080600d60009054906101000a900473ffffffffffffffffffffffffffffffffffffffff1673ffffffffffffffffffffffffffffffffffffffff166370a08231306040518263ffffffff167c0100000000000000000000000000000000000000000000000000000000028152600401808273ffffffffffffffffffffffffffffffffffffffff1673ffffffffffffffffffffffffffffffffffffffff16815260200191505060206040518083038186803b1580156134f357600080fd5b505afa158015613507573d6000803e3d6000fd5b505050506040513d602081101561351d57600080fd5b810190808051906020019092919050505090506000811115156135a8576040517f08c379a00000000000000000000000000000000000000000000000000000000081526004018080602001828103825260158152602001807f5265766572743a2042616c616e6365206973203021000000000000000000000081525060200191505060405180910390fd5b8091505090565b6135c16135bb82611be5565b8261467d565b50565b600081600001549050919050565b6000600560008373ffffffffffffffffffffffffffffffffffffffff1673ffffffffffffffffffffffffffffffffffffffff1681526020019081526020016000209050919050565b600080600d60009054906101000a900473ffffffffffffffffffffffffffffffffffffffff1673ffffffffffffffffffffffffffffffffffffffff1663dd62ed3e85306040518363ffffffff167c0100000000000000000000000000000000000000000000000000000000028152600401808373ffffffffffffffffffffffffffffffffffffffff1673ffffffffffffffffffffffffffffffffffffffff1681526020018273ffffffffffffffffffffffffffffffffffffffff1673ffffffffffffffffffffffffffffffffffffffff1681526020019250505060206040518083038186803b15801561370c57600080fd5b505afa158015613720573d6000803e3d6000fd5b505050506040513d602081101561373657600080fd5b810190808051906020019092919050505090508281101515156137c1576040517f08c379a00000000000000000000000000000000000000000000000000000000081526004018080602001828103825260158152602001807f5265766572743a2042616c616e6365206973203021000000000000000000000081525060200191505060405180910390fd5b600191505092915050565b6000600d60009054906101000a900473ffffffffffffffffffffffffffffffffffffffff1673ffffffffffffffffffffffffffffffffffffffff166323b872dd8430856040518463ffffffff167c0100000000000000000000000000000000000000000000000000000000028152600401808473ffffffffffffffffffffffffffffffffffffffff1673ffffffffffffffffffffffffffffffffffffffff1681526020018373ffffffffffffffffffffffffffffffffffffffff1673ffffffffffffffffffffffffffffffffffffffff1681526020018281526020019350505050602060405180830381600087803b1580156138c757600080fd5b505af11580156138db573d6000803e3d6000fd5b505050506040513d60208110156138f157600080fd5b8101908080519060200190929190505050151561390d57600080fd5b6001905092915050565b6060613922826146dc565b1515613979576040517f08c379a000000000000000000000000000000000000000000000000000000000815260040180806020018281038252602c815260200180615194602c913960400191505060405180910390fd5b6060601260008481526020019081526020016000206000018054600181600116156101000203166002900480601f016020809104026020016040519081016040528092919081815260200182805460018160011615610100020316600290048015613a255780601f106139fa57610100808354040283529160200191613a25565b820191906000526020600020905b815481529060010190602001808311613a0857829003601f168201915b505050505090508060405160200180807f68747470733a2f2f62756c6c696f6e69782e696f2f6d657461646174612f0000815250601e0182805190602001908083835b602083101515613a8d5780518252602082019150602081019050602083039250613a68565b6001836020036101000a038019825116818451168082178552505050505050905001915050604051602081830303815290604052915050919050565b6000828211151515613b43576040517f08c379a000000000000000000000000000000000000000000000000000000000815260040180806020018281038252601e8152602001807f536166654d6174683a207375627472616374696f6e206f766572666c6f77000081525060200191505060405180910390fd5b600082840390508091505092915050565b6000613b608484614851565b613b6a8383614872565b600190509392505050565b6000613b968473ffffffffffffffffffffffffffffffffffffffff166148fe565b1515613ba55760019050613d90565b60008473ffffffffffffffffffffffffffffffffffffffff1663150b7a02338887876040518563ffffffff167c0100000000000000000000000000000000000000000000000000000000028152600401808573ffffffffffffffffffffffffffffffffffffffff1673ffffffffffffffffffffffffffffffffffffffff1681526020018473ffffffffffffffffffffffffffffffffffffffff1673ffffffffffffffffffffffffffffffffffffffff16815260200183815260200180602001828103825283818151815260200191508051906020019080838360005b83811015613c9c578082015181840152602081019050613c81565b50505050905090810190601f168015613cc95780820380516001836020036101000a031916815260200191505b5095505050505050602060405180830381600087803b158015613ceb57600080fd5b505af1158015613cff573d6000803e3d6000fd5b505050506040513d6020811015613d1557600080fd5b8101908080519060200190929190505050905063150b7a027c0100000000000000000000000000000000000000000000000000000000027bffffffffffffffffffffffffffffffffffffffffffffffffffffffff1916817bffffffffffffffffffffffffffffffffffffffffffffffffffffffff1916149150505b949350505050565b600073ffffffffffffffffffffffffffffffffffffffff168173ffffffffffffffffffffffffffffffffffffffff1614151515613e20576040517f08c379a00000000000000000000000000000000000000000000000000000000081526004018080602001828103825260268152602001806150726026913960400191505060405180910390fd5b8073ffffffffffffffffffffffffffffffffffffffff16600c60009054906101000a900473ffffffffffffffffffffffffffffffffffffffff1673ffffffffffffffffffffffffffffffffffffffff167f8be0079c531659141344cd1fd0a4f28419497f9722a3daafe3b4186f6b6457e060405160405180910390a380600c60006101000a81548173ffffffffffffffffffffffffffffffffffffffff021916908373ffffffffffffffffffffffffffffffffffffffff16021790555050565b8273ffffffffffffffffffffffffffffffffffffffff16613f0082611be5565b73ffffffffffffffffffffffffffffffffffffffff16141515613f6e576040517f08c379a00000000000000000000000000000000000000000000000000000000081526004018080602001828103825260298152602001806151ec6029913960400191505060405180910390fd5b600073ffffffffffffffffffffffffffffffffffffffff168273ffffffffffffffffffffffffffffffffffffffff1614151515613ff6576040517f08c379a00000000000000000000000000000000000000000000000000000000081526004018080602001828103825260248152602001806150986024913960400191505060405180910390fd5b613fff81614911565b614046600360008573ffffffffffffffffffffffffffffffffffffffff1673ffffffffffffffffffffffffffffffffffffffff1681526020019081526020016000206149d1565b61408d600360008473ffffffffffffffffffffffffffffffffffffffff1673ffffffffffffffffffffffffffffffffffffffff1681526020019081526020016000206149f4565b816001600083815260200190815260200160002060006101000a81548173ffffffffffffffffffffffffffffffffffffffff021916908373ffffffffffffffffffffffffffffffffffffffff160217905550808273ffffffffffffffffffffffffffffffffffffffff168473ffffffffffffffffffffffffffffffffffffffff167fddf252ad1be2c89b69c2b068fc378daa952ba7f163c4a11628f55a4df523b3ef60405160405180910390a4505050565b60006141976001600560008673ffffffffffffffffffffffffffffffffffffffff1673ffffffffffffffffffffffffffffffffffffffff16815260200190815260200160002080549050613ac990919063ffffffff16565b9050600060066000848152602001908152602001600020549050818114151561428a576000600560008673ffffffffffffffffffffffffffffffffffffffff1673ffffffffffffffffffffffffffffffffffffffff1681526020019081526020016000208381548110151561420857fe5b9060005260206000200154905080600560008773ffffffffffffffffffffffffffffffffffffffff1673ffffffffffffffffffffffffffffffffffffffff1681526020019081526020016000208381548110151561426257fe5b9060005260206000200181905550816006600083815260200190815260200160002081905550505b600560008573ffffffffffffffffffffffffffffffffffffffff1673ffffffffffffffffffffffffffffffffffffffff1681526020019081526020016000208054809190600190036142dc9190614f7b565b5050505050565b600560008373ffffffffffffffffffffffffffffffffffffffff1673ffffffffffffffffffffffffffffffffffffffff168152602001908152602001600020805490506006600083815260200190815260200160002081905550600560008373ffffffffffffffffffffffffffffffffffffffff1673ffffffffffffffffffffffffffffffffffffffff1681526020019081526020016000208190806001815401808255809150509060018203906000526020600020016000909192909190915055505050565b60008082111515614423576040517f08c379a000000000000000000000000000000000000000000000000000000000815260040180806020018281038252601a8152602001807f536166654d6174683a206469766973696f6e206279207a65726f00000000000081525060200191505060405180910390fd5b6000828481151561443057fe5b0490508091505092915050565b6000806000806000806000600e60009054906101000a900473ffffffffffffffffffffffffffffffffffffffff1673ffffffffffffffffffffffffffffffffffffffff166339d20a5f896040518263ffffffff167c0100000000000000000000000000000000000000000000000000000000028152600401808273ffffffffffffffffffffffffffffffffffffffff1673ffffffffffffffffffffffffffffffffffffffff16815260200191505060c060405180830381600087803b15801561450557600080fd5b505af1158015614519573d6000803e3d6000fd5b505050506040513d60c081101561452f57600080fd5b810190808051906020019092919080519060200190929190805190602001909291908051906020019092919080519060200190929190805190602001909291905050509550955095509550955095506000841015801561458e57504284105b15156145e5576040517f08c379a00000000000000000000000000000000000000000000000000000000081526004018080602001828103825260218152602001806152e76021913960400191505060405180910390fd5b839650505050505050919050565b6000808314156146065760009050614677565b6000828402905082848281151561461957fe5b04141515614672576040517f08c379a00000000000000000000000000000000000000000000000000000000081526004018080602001828103825260218152602001806151736021913960400191505060405180910390fd5b809150505b92915050565b6146878282614a0a565b6000600b60008381526020019081526020016000208054600181600116156101000203166002900490501415156146d857600b600082815260200190815260200160002060006146d79190614fa7565b5b5050565b60006060601260008481526020019081526020016000206000018054600181600116156101000203166002900480601f01602080910402602001604051908101604052809291908181526020018280546001816001161561010002031660029004801561478a5780601f1061475f5761010080835404028352916020019161478a565b820191906000526020600020905b81548152906001019060200180831161476d57829003601f168201915b50505050509050606081905060018151101582901515614845576040517f08c379a00000000000000000000000000000000000000000000000000000000081526004018080602001828103825283818151815260200191508051906020019080838360005b8381101561480a5780820151818401526020810190506147ef565b50505050905090810190601f1680156148375780820380516001836020036101000a031916815260200191505b509250505060405180910390fd5b50600192505050919050565b61485b8282614a44565b61486582826142e3565b61486e81614c60565b5050565b61487b82612eff565b15156148d2576040517f08c379a000000000000000000000000000000000000000000000000000000000815260040180806020018281038252602c8152602001806151c0602c913960400191505060405180910390fd5b80600b600084815260200190815260200160002090805190602001906148f9929190614efb565b505050565b600080823b905060008111915050919050565b600073ffffffffffffffffffffffffffffffffffffffff166002600083815260200190815260200160002060009054906101000a900473ffffffffffffffffffffffffffffffffffffffff1673ffffffffffffffffffffffffffffffffffffffff161415156149ce5760006002600083815260200190815260200160002060006101000a81548173ffffffffffffffffffffffffffffffffffffffff021916908373ffffffffffffffffffffffffffffffffffffffff1602179055505b50565b6149e960018260000154613ac990919063ffffffff16565b816000018190555050565b6001816000016000828254019250508190555050565b614a148282614cac565b614a1e828261413f565b60006006600083815260200190815260200160002081905550614a4081614e3d565b5050565b600073ffffffffffffffffffffffffffffffffffffffff168273ffffffffffffffffffffffffffffffffffffffff1614151515614ae9576040517f08c379a00000000000000000000000000000000000000000000000000000000081526004018080602001828103825260208152602001807f4552433732313a206d696e7420746f20746865207a65726f206164647265737381525060200191505060405180910390fd5b614af281612eff565b151515614b67576040517f08c379a000000000000000000000000000000000000000000000000000000000815260040180806020018281038252601c8152602001807f4552433732313a20746f6b656e20616c7265616479206d696e7465640000000081525060200191505060405180910390fd5b816001600083815260200190815260200160002060006101000a81548173ffffffffffffffffffffffffffffffffffffffff021916908373ffffffffffffffffffffffffffffffffffffffff160217905550614c00600360008473ffffffffffffffffffffffffffffffffffffffff1673ffffffffffffffffffffffffffffffffffffffff1681526020019081526020016000206149f4565b808273ffffffffffffffffffffffffffffffffffffffff16600073ffffffffffffffffffffffffffffffffffffffff167fddf252ad1be2c89b69c2b068fc378daa952ba7f163c4a11628f55a4df523b3ef60405160405180910390a45050565b6007805490506008600083815260200190815260200160002081905550600781908060018154018082558091505090600182039060005260206000200160009091929091909150555050565b8173ffffffffffffffffffffffffffffffffffffffff16614ccc82611be5565b73ffffffffffffffffffffffffffffffffffffffff16141515614d3a576040517f08c379a00000000000000000000000000000000000000000000000000000000081526004018080602001828103825260258152602001806152c26025913960400191505060405180910390fd5b614d4381614911565b614d8a600360008473ffffffffffffffffffffffffffffffffffffffff1673ffffffffffffffffffffffffffffffffffffffff1681526020019081526020016000206149d1565b60006001600083815260200190815260200160002060006101000a81548173ffffffffffffffffffffffffffffffffffffffff021916908373ffffffffffffffffffffffffffffffffffffffff16021790555080600073ffffffffffffffffffffffffffffffffffffffff168373ffffffffffffffffffffffffffffffffffffffff167fddf252ad1be2c89b69c2b068fc378daa952ba7f163c4a11628f55a4df523b3ef60405160405180910390a45050565b6000614e586001600780549050613ac990919063ffffffff16565b90506000600860008481526020019081526020016000205490506000600783815481101515614e8357fe5b9060005260206000200154905080600783815481101515614ea057fe5b90600052602060002001819055508160086000838152602001908152602001600020819055506007805480919060019003614edb9190614f7b565b506000600860008681526020019081526020016000208190555050505050565b828054600181600116156101000203166002900490600052602060002090601f016020900481019282601f10614f3c57805160ff1916838001178555614f6a565b82800160010185558215614f6a579182015b82811115614f69578251825591602001919060010190614f4e565b5b509050614f779190614fef565b5090565b815481835581811115614fa257818360005260206000209182019101614fa19190614fef565b5b505050565b50805460018160011615610100020316600290046000825580601f10614fcd5750614fec565b601f016020900490600052602060002090810190614feb9190614fef565b5b50565b61501191905b8082111561500d576000816000905550600101614ff5565b5090565b9056fe455243373231456e756d657261626c653a206f776e657220696e646578206f7574206f6620626f756e64734552433732313a207472616e7366657220746f206e6f6e20455243373231526563656976657220696d706c656d656e7465724f776e61626c653a206e6577206f776e657220697320746865207a65726f20616464726573734552433732313a207472616e7366657220746f20746865207a65726f20616464726573734552433732313a206f70657261746f7220717565727920666f72206e6f6e6578697374656e7420746f6b656e4552433732313a20617070726f76652063616c6c6572206973206e6f74206f776e6572206e6f7220617070726f76656420666f7220616c6c4552433732313a2062616c616e636520717565727920666f7220746865207a65726f20616464726573734552433732313a206f776e657220717565727920666f72206e6f6e6578697374656e7420746f6b656e536166654d6174683a206d756c7469706c69636174696f6e206f766572666c6f774552433732313a20617070726f76656420717565727920666f72206e6f6e6578697374656e7420746f6b656e4552433732314d657461646174613a2055524920736574206f66206e6f6e6578697374656e7420746f6b656e4552433732313a207472616e73666572206f6620746f6b656e2074686174206973206e6f74206f776e4552433732314d657461646174613a2055524920717565727920666f72206e6f6e6578697374656e7420746f6b656e4552433732313a20617070726f76616c20746f2063757272656e74206f776e65724552433732313a207472616e736665722063616c6c6572206973206e6f74206f776e6572206e6f7220617070726f766564455243373231456e756d657261626c653a20676c6f62616c20696e646578206f7574206f6620626f756e64734552433732313a206275726e206f6620746f6b656e2074686174206973206e6f74206f776e4c617374207061796d656e742074696d657374616d7020697320696e76616c69644552433732314275726e61626c653a2063616c6c6572206973206e6f74206f776e6572206e6f7220617070726f766564a165627a7a72305820fb44a15b4e0c996a3e9c7b8c637764c25f14fbce21111a2728e8e77fb37cb1f40029",
  "source": "pragma solidity >=0.4.22 <0.6.0;\r\n\r\n\r\nimport \"openzeppelin-solidity/contracts/token/ERC721/ERC721Full.sol\";\r\nimport \"openzeppelin-solidity/contracts/token/ERC721/IERC721Metadata.sol\";\r\nimport \"openzeppelin-solidity/contracts/token/ERC721/IERC721Enumerable.sol\";\r\nimport \"openzeppelin-solidity/contracts/ownership/Ownable.sol\";\r\nimport \"openzeppelin-solidity/contracts/token/ERC721/ERC721MetadataMintable.sol\";\r\nimport \"openzeppelin-solidity/contracts/math/SafeMath.sol\";\r\nimport './DGXinterface.sol';\r\ncontract BullionixGenerator is ERC721Enumerable, ERC721MetadataMintable, Ownable{\r\n    \r\nmodifier isActive{\r\n    require(isOnline == true);\r\n    _;\r\n    }\r\nusing SafeMath for uint256;\r\n/*\r\n* @dev Beginning state and init values\r\n**/\r\nDGXinterface dgx; \r\nDGXinterface dgxStorage; \r\nbool public isOnline = false;\r\n/*\r\nKovan KDGX token contract - 0xAEd4fc9663420eC8a6c892065BBA49c935581Dce\r\nKovan Storage contract - 0x3c5E7435190ecd13C88F3600Ca317A1A5FdD2Ae6\r\n\r\nMainnet token contract - \r\nMainnet storage contract - 0xC672EC9CF3Be7Ad06Be4C5650812aEc23BBfB7E1\r\n*/\r\naddress payable public DGXContract = 0xAEd4fc9663420eC8a6c892065BBA49c935581Dce;  //To be filled in\r\naddress payable  public DGXTokenStorage = 0x3c5E7435190ecd13C88F3600Ca317A1A5FdD2Ae6; //To be filled in\r\nstring constant  name = \"Bullionix\";\r\nstring constant  title = \"Bullionix\";  //To be filled in\r\nstring constant  symbol = \"BLX\"; //To be filled in\r\nstring constant  version = \"Bullionix v0.2\";\r\nmapping(uint256 => uint256) public StakedValue;\r\nmapping(uint256 => seriesData) public seriesToTokenId;\r\nstruct seriesData {\r\n                string url;\r\n                uint256 numberInSeries;\r\n                uint256 DGXcost;\r\n                uint256 fee;\r\n                bool alive;\r\n        }\r\n        \r\n     /*\r\n* @dev Events\r\n* @dev Events to read when things happen\r\n**/\r\nevent NewSeriesMade(string indexed url, uint256 indexed numberToMint);\r\nevent Staked(address indexed _sender, uint256 _amount, uint256  tokenStaked);\r\nevent Burned(address indexed _sender,  uint256  _amount, uint256  _tokenId);\r\nevent Withdrawal(address indexed _receiver,  uint256 indexed _amount);\r\n\r\n/*\r\n* @dev Constructor() and storge init\r\n* @dev Sets state\r\n**/\r\nconstructor() public ERC721Metadata(name, symbol){\r\n        if (address(DGXContract) != address(0x0) && address(DGXTokenStorage) != address(0x0)) {\r\n            isOnline = true;\r\n            dgx = DGXinterface(DGXContract);\r\n            dgxStorage = DGXinterface(DGXTokenStorage);\r\n        }\r\n}\r\n\r\n\r\n/* \r\n* @dev changes online status to disable contract, must be current owner\r\n*\r\n**/\r\n function toggleOnline() external onlyOwner {\r\n         isOnline = !isOnline;\r\n }\r\n   /**\r\n     * @dev Create a new series of NFTs.\r\n     * @param _url location of metadata on backend server. Will be tacked onto the end of set url using returnURL().\r\n     * @param _numberToMint  The token number for this series. 10 would make 10 tokens avaliable \r\n     * @param _DGXcost The amount of DGX to send\r\n     * @param _fee Bullionix fee for generation\r\n     * @return A boolean that indicates if the operation was successful.\r\n     */\r\n function createNewSeries(string memory _url, uint256 _numberToMint, uint256 _DGXcost, uint256 _fee) public onlyOwner isActive returns (bool _success){\r\n      //takes input from admin to create a new nft series. Will have to define how many tokens to make, how much DGX they cost, and the url from s3.\r\n      require(msg.sender == owner(), 'Only Owner'); //optional as onlyOwner Modifier is used \r\n      uint256 total = totalSupply();\r\n      for(uint i = 0; i < _numberToMint; i++){\r\n          seriesToTokenId[total.add(i)].url = _url;\r\n          seriesToTokenId[total.add(i)].numberInSeries = _numberToMint;\r\n          seriesToTokenId[total.add(i)].DGXcost = _DGXcost;\r\n          seriesToTokenId[total.add(i)].fee = _fee;\r\n      }\r\n    \r\n   emit NewSeriesMade(_url, _numberToMint);\r\n   return true;\r\n }\r\n\r\n /* \r\n* @dev Stake to series and mint tokens \r\n*\r\n**/\r\n function stake(uint256 _tokenToBuy) public payable isActive returns (bool){\r\n      //takes input from admin to create a new nft series. Will have to define how many tokens to make, how much DGX they cost, and the url from s3.     \r\n      require(seriesToTokenId[_tokenToBuy].fee >= 0 && StakedValue[_tokenToBuy] == 0, \"Can't stake to this token!\");\r\n      uint256  amountRequired = ((seriesToTokenId[_tokenToBuy].DGXcost.add(seriesToTokenId[_tokenToBuy].fee))*10**9);\r\n      uint256 transferFee = fetchTransferFee();\r\n      uint256 demurageFee = fetchDemurrageFee(msg.sender);\r\n      //add demurage fee to transfer fee\r\n     uint256 totalFees = demurageFee.add(transferFee);\r\n      //require transfer to contract succeeds\r\n      require(_checkAllowance(msg.sender, amountRequired), \"Not enough allowance\");\r\n      require(_transferFromDGX(msg.sender, amountRequired), \"Transfer DGX failed\");\r\n      //get url \r\n     string memory fullURL = returnURL(_tokenToBuy);\r\n     amountRequired = amountRequired.sub(totalFees);\r\n     require(amountRequired > totalFees, \"Math invalid\");\r\n     require(mintWithTokenURI(msg.sender, _tokenToBuy, fullURL), \"Minting NFT failed\");\r\n     //staked value is set to DGXCost sent by user minus the total fees \r\n     StakedValue[_tokenToBuy] = amountRequired;\r\n     \r\n     emit Staked(msg.sender, StakedValue[_tokenToBuy], _tokenToBuy);\r\n     seriesToTokenId[_tokenToBuy].alive = true;\r\n     return true;\r\n }\r\n\r\n\r\n  /**\r\n     * @dev Burns a specific ERC721 token and refunds user the DGX on the NFT\r\n     * @param _tokenId uint256 id of the ERC721 token to be burned.\r\n     */\r\n     \r\n     //TODO: Finalize this function and transfer the DGX back to msg.sender for burning their nft \r\nfunction burn(uint256 _tokenId)public payable returns (bool){\r\n        //solhint-disable-next-line max-line-length\r\n        //check token is staked \r\n        \r\n        require(StakedValue[_tokenId] > 0 && seriesToTokenId[_tokenId].alive, \"NFT not burnable yet\");\r\n        //check that you are owner of token\r\n         require(_isApprovedOrOwner(msg.sender, _tokenId), \"ERC721Burnable: caller is not owner nor approved\");\r\n        //check balance of smart contract\r\n          //get fees to calculate \r\n     uint256 transferFee = fetchTransferFee();\r\n     uint256 demurrageFee = fetchDemurrageFee(address(this));\r\n     //total fees\r\n     uint256 feeValue = transferFee.add(demurrageFee);\r\n      require(feeValue < StakedValue[_tokenId], \"Fee is more than StakedValue\");\r\n     uint256 UserWithdrawal = StakedValue[_tokenId].add(feeValue);\r\n     require(_checkBalance() >= UserWithdrawal, \"Balance check failed\");\r\n     seriesToTokenId[_tokenId].alive = false;\r\n        //transfer 721 to 0x000\r\n        _burn(_tokenId);\r\n        //transfer dgx from contract to msg.sender\r\n    require(dgx.transfer(msg.sender, UserWithdrawal));\r\n         \r\n       return true;\r\n    }\r\n    \r\n      /**\r\n     * @dev Withdrawals DGX from the balance collected via fees only Owner.\r\n     */\r\nfunction withdrawal() onlyOwner\r\n    public\r\n  returns (bool){\r\n    require(isOnline == false);\r\n    uint256 temp = _checkBalance(); //calls checkBalance which will revert if no balance, if balance pass it into transfer as amount to withdrawal MAX\r\n    require(dgx.transfer(msg.sender, temp)); \r\n    emit Withdrawal(msg.sender, temp);\r\n    return true;    \r\n  }\r\nfunction _checkBalance() internal view returns (uint256){\r\n    uint256 tempBalance = dgx.balanceOf(address(this)); //checking balance on DGX contract\r\n    require(tempBalance > 0, \"Revert: Balance is 0!\");  //do I even have a balance? Lets see. If no balance revert. \r\n    return tempBalance;  //here is your balance! Fresh off the stove. \r\n}\r\nfunction _checkAllowance(address sender, uint256 amountNeeded) internal view returns (bool){\r\n    uint256 tempBalance = dgx.allowance(sender, address(this)); //checking balance on DGX contract\r\n    require(tempBalance >= amountNeeded, \"Revert: Balance is 0!\");  //do I even have a balance? Lets see. If no balance revert. \r\n    return true;  //here is your balance! Fresh off the stove. \r\n} \r\n/*\r\n  * @dev Gets the total amount of tokens owned by the sender\r\n  * @return uint[] with the id of each token owned\r\n  */\r\nfunction viewYourTokens() external view  returns (uint256[] memory _yourTokens){\r\n       return super._tokensOfOwner(msg.sender);\r\n}\r\nfunction setDGXStorage(address payable newAddress) onlyOwner external returns (bool){\r\n    DGXTokenStorage = newAddress;\r\n    dgxStorage = DGXinterface(DGXTokenStorage);\r\n    return true;\r\n}\r\nfunction setDGXContract(address payable newAddress) onlyOwner external returns (bool){\r\n    DGXContract = newAddress;\r\n    dgx = DGXinterface(DGXContract);\r\n    return true;\r\n}\r\n// Internals \r\n/*\r\n  * TransferForm called after user has approved DGX to be spent by this contract.\r\n  * If transferform fails, return false \r\n  * @dev returns the entire tokenURI \r\n  * @return uint256 with the id of the token\r\n  */\r\n  \r\n  /*\r\n  * @dev returns the entire tokenURI \r\n  * @return uint256 with the id of the token\r\n  */\r\nfunction returnURL(uint256 _tokenId) internal view returns (string memory _URL){\r\n   require(checkURL(_tokenId), \"ERC721: approved query for nonexistent token\"); //Does this token exist? Lets see. \r\n   string memory uri = seriesToTokenId[_tokenId].url;\r\n   return string(abi.encodePacked(\"https://bullionix.io/metadata/\", uri)); //Here is your URL! \r\n}\r\n\r\n  /*\r\n  * @dev Returns the URL - internal \r\n  * @return URL of token with full website attached\r\n  */\r\n  function checkURL(uint256 _tokenId) internal view returns (bool){\r\n      string memory temp = seriesToTokenId[_tokenId].url;\r\n      bytes memory tempEmptyStringTest = bytes(temp);\r\n      require(tempEmptyStringTest.length >= 1, temp);\r\n      return true;\r\n  }\r\n function _transferFromDGX (address _owner,  uint256 _amount)internal returns (bool)\r\n    \r\n  {\r\n    require(dgx.transferFrom(_owner, address(this), _amount));\r\n    return true;\r\n  }\r\n\r\n\r\n\r\nfunction fetchTransferFee() internal returns (uint256 rate){\r\n  \r\n   (uint256 _base, uint256 _rate, address _collector, bool _no_transfer_fee, uint256 _minimum_transfer_amount) = dgx.showTransferConfigs();\r\n   if(_no_transfer_fee){\r\n       return 0;\r\n   }\r\n   return _rate.div(_base);\r\n   \r\n}\r\n\r\nfunction fetchLastTransfer(address _user) internal returns (uint256 _payment_date){\r\n    //gets the timestamp from the DGX contract to help calculate the fees \r\n     ( bool _exists,\r\n        uint256 _raw_balance,\r\n        uint256 _payment_date,\r\n        bool _no_demurrage_fee,\r\n        bool _no_recast_fee,\r\n        bool _no_transfer_fee ) = dgxStorage.read_user(_user);\r\n        require(_payment_date >= 0 && _payment_date < block.timestamp, \"Last payment timestamp is invalid\");\r\n        \r\n        return _payment_date;\r\n    \r\n}\r\n\r\nfunction fetchDemurrageFee(address _sender) internal returns (uint256 rate){\r\n        //calculate the fee taken by DGX using (rate/base)*(timestamp_now - last_payment) / number_of_seconds_in_a_day = demurrage fee\r\n   (uint256 _base, uint256 _rate, address _collector, bool _no_demurrage_fee) = dgx.showDemurrageConfigs();\r\n   if(_no_demurrage_fee) return 0;\r\n   uint demurageFee = _rate.div(_base);\r\n   //get last transfer date\r\n   uint256 last_timestamp = fetchLastTransfer(_sender);\r\n      uint256 daysSinceTransfer = block.timestamp.sub(last_timestamp).div(86400); \r\n      require(daysSinceTransfer > 0, \"Days since transfer is 0 or less\");\r\n      //calculate total fees\r\n      //get total demurage fee by taking fee*days\r\n      uint256 totalFees = demurageFee.mul(daysSinceTransfer);\r\n   return totalFees;\r\n   \r\n}\r\nfunction() external payable {\r\n\r\n}\r\n}",
  "sourcePath": "C:/Users/Spader/Coding/Bullionix/Bullionix_phase1/Phase_2/contracts/BullionixGenerator.sol",
  "compiler": {
    "name": "solc",
    "version": "0.5.2+commit.1df8f40c.Emscripten.clang"
  },
  "schemaVersion": "3.0.12",
  "updatedAt": "2020-01-11T09:20:15.358Z",
  "devdoc": {
    "methods": {
      "approve(address,uint256)": {
        "details": "Approves another address to transfer the given token ID The zero address indicates there is no approved address. There can only be one approved address per token at a given time. Can only be called by the token owner or an approved operator.",
        "params": {
          "to": "address to be approved for the given token ID",
          "tokenId": "uint256 ID of the token to be approved"
        }
      },
      "balanceOf(address)": {
        "details": "Gets the balance of the specified address.",
        "params": {
          "owner": "address to query the balance of"
        },
        "return": "uint256 representing the amount owned by the passed address"
      },
      "burn(uint256)": {
        "details": "Burns a specific ERC721 token and refunds user the DGX on the NFT\r",
        "params": {
          "_tokenId": "uint256 id of the ERC721 token to be burned.\r"
        }
      },
      "createNewSeries(string,uint256,uint256,uint256)": {
        "details": "Create a new series of NFTs.\r",
        "params": {
          "_DGXcost": "The amount of DGX to send\r",
          "_fee": "Bullionix fee for generation\r",
          "_numberToMint": "The token number for this series. 10 would make 10 tokens avaliable \r",
          "_url": "location of metadata on backend server. Will be tacked onto the end of set url using returnURL().\r"
        },
        "return": "A boolean that indicates if the operation was successful.\r"
      },
      "getApproved(uint256)": {
        "details": "Gets the approved address for a token ID, or zero if no address set Reverts if the token ID does not exist.",
        "params": {
          "tokenId": "uint256 ID of the token to query the approval of"
        },
        "return": "address currently approved for the given token ID"
      },
      "isApprovedForAll(address,address)": {
        "details": "Tells whether an operator is approved by a given owner.",
        "params": {
          "operator": "operator address which you want to query the approval of",
          "owner": "owner address which you want to query the approval of"
        },
        "return": "bool whether the given operator is approved by the given owner"
      },
      "isOwner()": {
        "details": "Returns true if the caller is the current owner."
      },
      "name()": {
        "details": "Gets the token name.",
        "return": "string representing the token name"
      },
      "owner()": {
        "details": "Returns the address of the current owner."
      },
      "ownerOf(uint256)": {
        "details": "Gets the owner of the specified token ID.",
        "params": {
          "tokenId": "uint256 ID of the token to query the owner of"
        },
        "return": "address currently marked as the owner of the given token ID"
      },
      "renounceOwnership()": {
        "details": "Leaves the contract without owner. It will not be possible to call `onlyOwner` functions anymore. Can only be called by the current owner.     * > Note: Renouncing ownership will leave the contract without an owner, thereby removing any functionality that is only available to the owner."
      },
      "safeTransferFrom(address,address,uint256)": {
        "details": "Safely transfers the ownership of a given token ID to another address If the target address is a contract, it must implement `onERC721Received`, which is called upon a safe transfer, and return the magic value `bytes4(keccak256(\"onERC721Received(address,address,uint256,bytes)\"))`; otherwise, the transfer is reverted. Requires the msg.sender to be the owner, approved, or operator",
        "params": {
          "from": "current owner of the token",
          "to": "address to receive the ownership of the given token ID",
          "tokenId": "uint256 ID of the token to be transferred"
        }
      },
      "safeTransferFrom(address,address,uint256,bytes)": {
        "details": "Safely transfers the ownership of a given token ID to another address If the target address is a contract, it must implement `onERC721Received`, which is called upon a safe transfer, and return the magic value `bytes4(keccak256(\"onERC721Received(address,address,uint256,bytes)\"))`; otherwise, the transfer is reverted. Requires the msg.sender to be the owner, approved, or operator",
        "params": {
          "_data": "bytes data to send along with a safe transfer check",
          "from": "current owner of the token",
          "to": "address to receive the ownership of the given token ID",
          "tokenId": "uint256 ID of the token to be transferred"
        }
      },
      "setApprovalForAll(address,bool)": {
        "details": "Sets or unsets the approval of a given operator An operator is allowed to transfer all tokens of the sender on their behalf.",
        "params": {
          "approved": "representing the status of the approval to be set",
          "to": "operator address to set the approval"
        }
      },
      "supportsInterface(bytes4)": {
        "details": "See `IERC165.supportsInterface`.     * Time complexity O(1), guaranteed to always use less than 30 000 gas."
      },
      "symbol()": {
        "details": "Gets the token symbol.",
        "return": "string representing the token symbol"
      },
      "tokenByIndex(uint256)": {
        "details": "Gets the token ID at a given index of all the tokens in this contract Reverts if the index is greater or equal to the total number of tokens.",
        "params": {
          "index": "uint256 representing the index to be accessed of the tokens list"
        },
        "return": "uint256 token ID at the given index of the tokens list"
      },
      "tokenOfOwnerByIndex(address,uint256)": {
        "details": "Gets the token ID at a given index of the tokens list of the requested owner.",
        "params": {
          "index": "uint256 representing the index to be accessed of the requested tokens list",
          "owner": "address owning the tokens list to be accessed"
        },
        "return": "uint256 token ID at the given index of the tokens list owned by the requested address"
      },
      "tokenURI(uint256)": {
        "details": "Returns an URI for a given token ID. Throws if the token ID does not exist. May return an empty string.",
        "params": {
          "tokenId": "uint256 ID of the token to query"
        }
      },
      "totalSupply()": {
        "details": "Gets the total amount of tokens stored by the contract.",
        "return": "uint256 representing the total amount of tokens"
      },
      "transferFrom(address,address,uint256)": {
        "details": "Transfers the ownership of a given token ID to another address. Usage of this method is discouraged, use `safeTransferFrom` whenever possible. Requires the msg.sender to be the owner, approved, or operator.",
        "params": {
          "from": "current owner of the token",
          "to": "address to receive the ownership of the given token ID",
          "tokenId": "uint256 ID of the token to be transferred"
        }
      },
      "transferOwnership(address)": {
        "details": "Transfers ownership of the contract to a new account (`newOwner`). Can only be called by the current owner."
      },
      "withdrawal()": {
        "details": "Withdrawals DGX from the balance collected via fees only Owner.\r"
      }
    }
  },
  "userdoc": {
    "methods": {}
  }
}