{
  "contractName": "SimpleERC20Token",
  "abi": [
    {
      "constant": true,
      "inputs": [],
      "name": "name",
      "outputs": [
        {
          "name": "",
          "type": "string"
        }
      ],
      "payable": false,
      "stateMutability": "view",
      "type": "function"
    },
    {
      "constant": true,
      "inputs": [],
      "name": "totalSupply",
      "outputs": [
        {
          "name": "",
          "type": "uint256"
        }
      ],
      "payable": false,
      "stateMutability": "view",
      "type": "function"
    },
    {
      "constant": true,
      "inputs": [],
      "name": "decimals",
      "outputs": [
        {
          "name": "",
          "type": "uint8"
        }
      ],
      "payable": false,
      "stateMutability": "view",
      "type": "function"
    },
    {
      "constant": true,
      "inputs": [
        {
          "name": "",
          "type": "address"
        }
      ],
      "name": "balanceOf",
      "outputs": [
        {
          "name": "",
          "type": "uint256"
        }
      ],
      "payable": false,
      "stateMutability": "view",
      "type": "function"
    },
    {
      "constant": true,
      "inputs": [],
      "name": "symbol",
      "outputs": [
        {
          "name": "",
          "type": "string"
        }
      ],
      "payable": false,
      "stateMutability": "view",
      "type": "function"
    },
    {
      "constant": true,
      "inputs": [
        {
          "name": "",
          "type": "address"
        },
        {
          "name": "",
          "type": "address"
        }
      ],
      "name": "allowance",
      "outputs": [
        {
          "name": "",
          "type": "uint256"
        }
      ],
      "payable": false,
      "stateMutability": "view",
      "type": "function"
    },
    {
      "inputs": [],
      "payable": false,
      "stateMutability": "nonpayable",
      "type": "constructor"
    },
    {
      "payable": true,
      "stateMutability": "payable",
      "type": "fallback"
    },
    {
      "anonymous": false,
      "inputs": [
        {
          "indexed": true,
          "name": "from",
          "type": "address"
        },
        {
          "indexed": true,
          "name": "to",
          "type": "address"
        },
        {
          "indexed": false,
          "name": "value",
          "type": "uint256"
        }
      ],
      "name": "Transfer",
      "type": "event"
    },
    {
      "anonymous": false,
      "inputs": [
        {
          "indexed": true,
          "name": "owner",
          "type": "address"
        },
        {
          "indexed": true,
          "name": "spender",
          "type": "address"
        },
        {
          "indexed": false,
          "name": "value",
          "type": "uint256"
        }
      ],
      "name": "Approval",
      "type": "event"
    },
    {
      "constant": false,
      "inputs": [
        {
          "name": "to",
          "type": "address"
        },
        {
          "name": "value",
          "type": "uint256"
        }
      ],
      "name": "transfer",
      "outputs": [
        {
          "name": "success",
          "type": "bool"
        }
      ],
      "payable": true,
      "stateMutability": "payable",
      "type": "function"
    },
    {
      "constant": false,
      "inputs": [
        {
          "name": "spender",
          "type": "address"
        },
        {
          "name": "value",
          "type": "uint256"
        }
      ],
      "name": "approve",
      "outputs": [
        {
          "name": "success",
          "type": "bool"
        }
      ],
      "payable": false,
      "stateMutability": "nonpayable",
      "type": "function"
    },
    {
      "constant": false,
      "inputs": [
        {
          "name": "from",
          "type": "address"
        },
        {
          "name": "to",
          "type": "address"
        },
        {
          "name": "value",
          "type": "uint256"
        }
      ],
      "name": "transferFrom",
      "outputs": [
        {
          "name": "success",
          "type": "bool"
        }
      ],
      "payable": true,
      "stateMutability": "payable",
      "type": "function"
    },
    {
      "constant": false,
      "inputs": [],
      "name": "showTransferConfigs",
      "outputs": [
        {
          "name": "_base",
          "type": "uint256"
        },
        {
          "name": "_rate",
          "type": "uint256"
        },
        {
          "name": "_collector",
          "type": "address"
        },
        {
          "name": "_no_transfer_fee",
          "type": "bool"
        },
        {
          "name": "_minimum_transfer_amount",
          "type": "uint256"
        }
      ],
      "payable": false,
      "stateMutability": "nonpayable",
      "type": "function"
    },
    {
      "constant": false,
      "inputs": [],
      "name": "showDemurrageConfigs",
      "outputs": [
        {
          "name": "_base",
          "type": "uint256"
        },
        {
          "name": "_rate",
          "type": "uint256"
        },
        {
          "name": "_collector",
          "type": "address"
        },
        {
          "name": "_no_demurrage_fee",
          "type": "bool"
        }
      ],
      "payable": false,
      "stateMutability": "nonpayable",
      "type": "function"
    }
  ],
  "bytecode": "0x60806040526040805190810160405280601281526020017f53696d706c6520455243323020546f6b656e00000000000000000000000000008152506001908051906020019061004f929190610195565b506040805190810160405280600381526020017f53455400000000000000000000000000000000000000000000000000000000008152506002908051906020019061009b929190610195565b506012600360006101000a81548160ff021916908360ff160217905550600360009054906101000a900460ff1660ff16600a0a620f4240026004553480156100e257600080fd5b506004546000803373ffffffffffffffffffffffffffffffffffffffff1673ffffffffffffffffffffffffffffffffffffffff168152602001908152602001600020819055503373ffffffffffffffffffffffffffffffffffffffff16600073ffffffffffffffffffffffffffffffffffffffff167fddf252ad1be2c89b69c2b068fc378daa952ba7f163c4a11628f55a4df523b3ef6004546040518082815260200191505060405180910390a361023a565b828054600181600116156101000203166002900490600052602060002090601f016020900481019282601f106101d657805160ff1916838001178555610204565b82800160010185558215610204579182015b828111156102035782518255916020019190600101906101e8565b5b5090506102119190610215565b5090565b61023791905b8082111561023357600081600090555060010161021b565b5090565b90565b610c57806102496000396000f3fe6080604052600436106100b9576000357c010000000000000000000000000000000000000000000000000000000090048063313ce56711610081578063313ce567146102df57806370a082311461031057806395d89b4114610375578063a9059cbb14610405578063ae4aadbb1461046b578063dd62ed3e146104e2576100b9565b806306fdde03146100bb578063095ea7b31461014b57806318160ddd146101be57806323b872dd146101e9578063293f9a9c1461026f575b005b3480156100c757600080fd5b506100d0610567565b6040518080602001828103825283818151815260200191508051906020019080838360005b838110156101105780820151818401526020810190506100f5565b50505050905090810190601f16801561013d5780820380516001836020036101000a031916815260200191505b509250505060405180910390f35b34801561015757600080fd5b506101a46004803603604081101561016e57600080fd5b81019080803573ffffffffffffffffffffffffffffffffffffffff16906020019092919080359060200190929190505050610605565b604051808215151515815260200191505060405180910390f35b3480156101ca57600080fd5b506101d36106f7565b6040518082815260200191505060405180910390f35b610255600480360360608110156101ff57600080fd5b81019080803573ffffffffffffffffffffffffffffffffffffffff169060200190929190803573ffffffffffffffffffffffffffffffffffffffff169060200190929190803590602001909291905050506106fd565b604051808215151515815260200191505060405180910390f35b34801561027b57600080fd5b50610284610969565b604051808581526020018481526020018373ffffffffffffffffffffffffffffffffffffffff1673ffffffffffffffffffffffffffffffffffffffff1681526020018215151515815260200194505050505060405180910390f35b3480156102eb57600080fd5b506102f46109a3565b604051808260ff1660ff16815260200191505060405180910390f35b34801561031c57600080fd5b5061035f6004803603602081101561033357600080fd5b81019080803573ffffffffffffffffffffffffffffffffffffffff1690602001909291905050506109b6565b6040518082815260200191505060405180910390f35b34801561038157600080fd5b5061038a6109ce565b6040518080602001828103825283818151815260200191508051906020019080838360005b838110156103ca5780820151818401526020810190506103af565b50505050905090810190601f1680156103f75780820380516001836020036101000a031916815260200191505b509250505060405180910390f35b6104516004803603604081101561041b57600080fd5b81019080803573ffffffffffffffffffffffffffffffffffffffff16906020019092919080359060200190929190505050610a6c565b604051808215151515815260200191505060405180910390f35b34801561047757600080fd5b50610480610bc2565b604051808681526020018581526020018473ffffffffffffffffffffffffffffffffffffffff1673ffffffffffffffffffffffffffffffffffffffff168152602001831515151581526020018281526020019550505050505060405180910390f35b3480156104ee57600080fd5b506105516004803603604081101561050557600080fd5b81019080803573ffffffffffffffffffffffffffffffffffffffff169060200190929190803573ffffffffffffffffffffffffffffffffffffffff169060200190929190505050610c06565b6040518082815260200191505060405180910390f35b60018054600181600116156101000203166002900480601f0160208091040260200160405190810160405280929190818152602001828054600181600116156101000203166002900480156105fd5780601f106105d2576101008083540402835291602001916105fd565b820191906000526020600020905b8154815290600101906020018083116105e057829003601f168201915b505050505081565b600081600560003373ffffffffffffffffffffffffffffffffffffffff1673ffffffffffffffffffffffffffffffffffffffff16815260200190815260200160002060008573ffffffffffffffffffffffffffffffffffffffff1673ffffffffffffffffffffffffffffffffffffffff168152602001908152602001600020819055508273ffffffffffffffffffffffffffffffffffffffff163373ffffffffffffffffffffffffffffffffffffffff167f8c5be1e5ebec7d5bd14f71427d1e84f3dd0314c0f7b2291e5b200ac8c7c3b925846040518082815260200191505060405180910390a36001905092915050565b60045481565b60008060008573ffffffffffffffffffffffffffffffffffffffff1673ffffffffffffffffffffffffffffffffffffffff16815260200190815260200160002054821115151561074c57600080fd5b600560008573ffffffffffffffffffffffffffffffffffffffff1673ffffffffffffffffffffffffffffffffffffffff16815260200190815260200160002060003373ffffffffffffffffffffffffffffffffffffffff1673ffffffffffffffffffffffffffffffffffffffff1681526020019081526020016000205482111515156107d757600080fd5b816000808673ffffffffffffffffffffffffffffffffffffffff1673ffffffffffffffffffffffffffffffffffffffff16815260200190815260200160002060008282540392505081905550816000808573ffffffffffffffffffffffffffffffffffffffff1673ffffffffffffffffffffffffffffffffffffffff1681526020019081526020016000206000828254019250508190555081600560008673ffffffffffffffffffffffffffffffffffffffff1673ffffffffffffffffffffffffffffffffffffffff16815260200190815260200160002060003373ffffffffffffffffffffffffffffffffffffffff1673ffffffffffffffffffffffffffffffffffffffff168152602001908152602001600020600082825403925050819055508273ffffffffffffffffffffffffffffffffffffffff168473ffffffffffffffffffffffffffffffffffffffff167fddf252ad1be2c89b69c2b068fc378daa952ba7f163c4a11628f55a4df523b3ef846040518082815260200191505060405180910390a3600190509392505050565b600080600080620186a0600d73ca35b7d915458ef540ade6068dfe2f44e8fa733c6001839350829250819150935093509350935090919293565b600360009054906101000a900460ff1681565b60006020528060005260406000206000915090505481565b60028054600181600116156101000203166002900480601f016020809104026020016040519081016040528092919081815260200182805460018160011615610100020316600290048015610a645780601f10610a3957610100808354040283529160200191610a64565b820191906000526020600020905b815481529060010190602001808311610a4757829003601f168201915b505050505081565b6000816000803373ffffffffffffffffffffffffffffffffffffffff1673ffffffffffffffffffffffffffffffffffffffff1681526020019081526020016000205410151515610abb57600080fd5b816000803373ffffffffffffffffffffffffffffffffffffffff1673ffffffffffffffffffffffffffffffffffffffff16815260200190815260200160002060008282540392505081905550816000808573ffffffffffffffffffffffffffffffffffffffff1673ffffffffffffffffffffffffffffffffffffffff168152602001908152602001600020600082825401925050819055508273ffffffffffffffffffffffffffffffffffffffff163373ffffffffffffffffffffffffffffffffffffffff167fddf252ad1be2c89b69c2b068fc378daa952ba7f163c4a11628f55a4df523b3ef846040518082815260200191505060405180910390a36001905092915050565b60008060008060006103e8600d73ca35b7d915458ef540ade6068dfe2f44e8fa733c6001611388849450839350829250809050945094509450945094509091929394565b600560205281600052604060002060205280600052604060002060009150915050548156fea165627a7a723058206dd2e2738e6fbd573589791f0b18a7d605058f583acd303b0bc78941727d0d820029",
  "source": "pragma solidity ^0.5.0;\r\n\r\ncontract SimpleERC20Token {\r\n    // Track how many tokens are owned by each address.\r\n    mapping (address => uint256) public balanceOf;\r\n\r\n    string public name = \"Simple ERC20 Token\";\r\n    string public symbol = \"SET\";\r\n    uint8 public decimals = 18;\r\n\r\n    uint256 public totalSupply = 1000000 * (uint256(10) ** decimals);\r\n\r\n    event Transfer(address indexed from, address indexed to, uint256 value);\r\n\r\n  constructor() public {\r\n        // Initially assign all tokens to the contract's creator.\r\n        balanceOf[msg.sender] = totalSupply;\r\n        emit Transfer(address(0), msg.sender, totalSupply);\r\n    }\r\n\r\n    function transfer(address to, uint256 value) public payable returns  (bool success) {\r\n        require(balanceOf[msg.sender] >= value);\r\n\r\n        balanceOf[msg.sender] -= value;  // deduct from sender's balance\r\n        balanceOf[to] += value;          // add to recipient's balance\r\n        emit Transfer(msg.sender, to, value);\r\n        return true;\r\n    }\r\n\r\n    event Approval(address indexed owner, address indexed spender, uint256 value);\r\n\r\n    mapping(address => mapping(address => uint256)) public allowance;\r\n\r\n    function approve(address spender, uint256 value)\r\n        public\r\n        returns (bool success)\r\n    {\r\n        allowance[msg.sender][spender] = value;\r\n        emit Approval(msg.sender, spender, value);\r\n        return true;\r\n    }\r\n\r\n    function transferFrom(address from, address to, uint256 value)\r\n        public\r\n        payable\r\n        returns (bool success)\r\n    {\r\n        require(value <= balanceOf[from]);\r\n        require(value <= allowance[from][msg.sender]);\r\n\r\n        balanceOf[from] -= value;\r\n        balanceOf[to] += value;\r\n        allowance[from][msg.sender] -= value;\r\n        emit Transfer(from, to, value);\r\n        return true;\r\n    }\r\n\r\n     function showTransferConfigs()\r\n external\r\n  returns (uint256 _base, uint256 _rate, address _collector, bool _no_transfer_fee, uint256 _minimum_transfer_amount){\r\n      return (1000, 13, 0xCA35b7d915458EF540aDe6068dFe2F44E8fa733c, true, 5000);\r\n  }\r\n  /// @dev read the demurrage configurations\r\n/// @return {\r\n///   \"_base\": \"denominator for calculating demurrage fees\",\r\n///   \"_rate\": \"numerator for calculating demurrage fees\",\r\n///   \"_collector\": \"ethereum address of the demurrage fees collector\"\r\n///   \"_no_demurrage_fee\": \"true if demurrage fees is turned off globally\"\r\n/// }\r\nfunction showDemurrageConfigs()\r\n  external\r\n  returns (uint256 _base, uint256 _rate, address _collector, bool _no_demurrage_fee){\r\n         return (100000, 13, 0xCA35b7d915458EF540aDe6068dFe2F44E8fa733c, true);\r\n  }\r\n   \r\n\r\nfunction() external payable{\r\n    \r\n}\r\n   \r\n}\r\n",
  "sourcePath": "C:/Users/Spader/Coding/Bullionix/Bullionix_phase1/Phase_2/contracts/DummyToken.sol",
  "compiler": {
    "name": "solc",
    "version": "0.5.2+commit.1df8f40c.Emscripten.clang"
  },
  "schemaVersion": "3.0.12",
  "updatedAt": "2020-01-11T08:57:41.654Z",
  "devdoc": {
    "methods": {}
  },
  "userdoc": {
    "methods": {
      "showDemurrageConfigs()": {
        "notice": "}"
      }
    }
  }
}